:400000000080002011000000E5000000E500000008B5044B1A6803F53F5302331A6000F063F800BFFA46004010B5054C237833B9044B13B10448AFF300800123237010BD52
:400040002081FF1F00000000EC070000084B10B51BB108480849AFF300800848036803B910BD074B002BFBD0BDE81040184700BF00000000EC0700002481FF1F0881FF1F2B
:400080000000000030B587B000F0C0F900F00AFB6C46134D0FCD0FC495E8030044F8040B21800020014600F00BFB0025684600F0DDF90A2000F040FB00F0B6F904460028FD
:4000C000F4D015B9012000F0A1FA204600F09AFA0135102DEAD10020014600F0F1FAE4E7F0070000FEE700BF08B5104E104D16E029686B68AC68002204E051F8040B43F883
:40010000040B0432A242F8D1E868002203E0002143F8041B04328242F9D11035013E002EE6D100F029FBFFF7ADFFFEE7010000006408000008B5124A124B1A60124A136801
:4001400043F40073136000230AE0032B03D80F4A52F8231000E00E490E4A42F8231001332F2BF2D90C4B1A780C4B1A70094A0C4B1A6000F0AFF800220A4B1A6008BD00BF27
:400180000004FA050CED00E014ED00E000000000E50000000080FF1FBC7600400481FF1F08ED00E00081FF1FFEE700BFF0B40022174611E050F82760F3B226F0FF0608E047
:4001C00001EB420511F812406D78A5550132013BDBB2002BF4D10137092FEBD9F0BC7047064B1B78DBB203F00701054A11701B09013213704422034B1A707047CF010049EB
:400200006E5800407658004008B50A46002100F0E4FA08BD38B50C22244B1A80182202331A70022203F27E231A7008224FF040231A70032103F5007319701D4B1B78DBB292
:400240001C490B701C4B1A8041F25122023B1A80002419250CE0194B1B7803F0010343EA440404F003044FF4F07000F055FA013D0DB1032CEFD115B90320FFF795FF104BD1
:400280004FF480721A8007221A7000220D490A704820023108701A700222033B1A700A4A137843F00103137038BD00BF8040004008010049A1460040224200402542004030
:4002C0000440004006400040A243004008B500F079FA08BD70B572B6284A137843F00403137000240CE0264963001A1952000A4423445B00C8589188FFF786FF0134E4B2ED
:40030000082CF0D94FF090401E49FFF74FFF1E4A137843F0020313701032137843F0020313701A4C237843F040032370A2F58632513A137843F010031370154815490A22B1
:40034000FFF7C4FF144815490822FFF7BFFF144A137843F008031370124E01253570FFF759FF81233370104B1D70FFF739FF0F4821460E22FFF7AAFF70BD00BFE8460040C5
:40038000080800002800004803500140A043004000510040E402004822510040F0020048224300400048004004000840B04300407222074B1A702022013B1A700622613B72
:4003C0001A70472210331A70002250331A7070478364004010B500F0A7F904460A4A137843F020031370013A137843F010031370013A137843F01003137000F07FF92046ED
:4004000000F096F910BD00BF9364004008B5054B1B7823B9FFF7CCFF0122024B1A70FFF7D9FF08BD3C81FF1F084B1B78DBB213F0200F06D0064A1078C0B213F01E0F02D10D
:400440007047002070470020704700BF6264004040640040034B1B7813F0040FFAD1024B18707047616400404264004038B5074B1B782BB938BDFFF7EDFF0134A4B201E03C
:4004800005460024285D0028F5D138BD3C81FF1F10B50B4C237803F09F032370237803F0F00323702378184340F010002070012000F058F9237803F0EF03237010BD00BFD0
:4004C0002051004038B505460E4C237843F020032370237803F0BF032370002000F042F9237803F0F003237023781D4345F010052570012000F036F9237803F0EF032370C6
:4005000038BD00BF2051004070B5354B1A7802F08002D2B21A7033490A7802F0F00242F00F020A7001310A7802F0F0020A7001310A7802F0F0020A701A7802F0DF021A70EB
:400540001A7842F040021A704FF4CA76002000F009F9234D2B7843F010032B70012000F001F9214B1C78E4B22B7803F0EF032B70002000F0F7F804F00804E4B22B7843F033
:4005800010032B70012000F0EDF82B7803F0EF032B7014B90A2000F0E5F8013E0CB1002ED4D10F4A137803F0BF031370137803F08003DBB213700232137803F0F00313708C
:4005C0000132137803F0F00343F00F0313700132137803F0F00343F00F03137070BD00BF20510040225100402151004010B50446FFF78AFF2009FFF765FF04F00F00FFF717
:4006000061FF10BD08B5FFF7F1FF08BD10B50446FFF77AFF2009FFF73BFF04F00F00FFF737FF10BD08B5282000F086F80320FFF72FFF052000F080F80320FFF729FF0F209B
:4006400000F07AF80320FFF723FF012000F074F80220FFF71DFF052000F06EF80620FFF7D5FF0E20FFF7D2FF2C20FFF7CFFF0820FFF7CCFF0120FFF7C9FF0C20FFF7C6FF0D
:400680000320FFF7C3FF052000F056F808BD00BF08B50C20FFF7BAFF0122014B1A7008BD3E81FF1F08B5054B5B7823B9FFF7BAFF0122024B5A70FFF7EBFF08BD3E81FF1F1E
:4006C00008B5032819D8DFE800F002070D1381F08000FFF79BFF08BDA1F14000C0B2FFF795FF08BDA1F16C00C0B2FFF78FFF08BDA1F12C00C0B2FFF789FF08BD054A137862
:4007000043F0010313701032137843F001031370704700BFA24300400230800803D000BF01380046FCD17047EFF3108072B6704780F31088704700BF10B5044605E0084B75
:400740001868FFF7E9FFA4F50044B4F5004FF6D8034B586800FB04F0FFF7DEFF10BD00BF0C81FF1F08B5034B1B7A03FB00F0FFF7D3FF08BD0C81FF1F0E4B70B51E460E4C6F
:400780000025E41AA410A54204D056F8253098470135F8E700F054F8084B094C1E46E41AA4100025A54204D056F8253098470135F8E770BD4C0800004C0800004C08000076
:4007C0005408000010B5431E0A44914204D011F8014B03F8014FF8E710BD03460244934202D003F8011BFAE77047000000000000497320697420526F636B79206F722052FD
:40080000616B693F0A000000105100401000305100404000C05100401000F0510040100000000140001000140140000800400140000A004C0140000200500140200000001D
:40084000F8B500BFF8BC08BC9E4670474D00000035010000F8B500BFF8BC08BC9E46704729000000780800000881FF1F180000002000000000000000000000000000E02E61
:40088000C05D00001800000000366E01000000000000000000000000000000000000000000000000000000000000000000000000000000000000000000000000000000005E
:4008C00000000000000000000000000000000000000000000000000000000000000000000000000000000000000000000000000000000000000000000000000000000000F8
:4009000000000000000000000000000000000000000000000000000000000000000000000000000000000000000000000000000000000000000000000000000000000000B7
:400940000000000000000000000000000000000000000000000000000000000000000000000000000000000000000000000000000000000000000000000000000000000077
:400980000000000000000000000000000000000000000000000000000000000000000000000000000000000000000000000000000000000000000000000000000000000037
:020000040003F7
:0200000480007A
:4000000002520040036400406F0001403C0101404E020140520301400305014004410140044201400250014000020401810F82388372000C0213044005E709440B310D0119
:400040000E400F0E1040141115E7160E1D801E402208260C282029222A032B512C112E06300F31073240336034303580371838283A023F40404241054206440146EC480CA2
:4000800049FF4AFF4BFF4C624DA04EF04F41500C580459045A045F016640670269106A306B106D106E106F1280DC82228414880C8A718B558E03912A934496209B089C10E1
:4000C0009D739E409F0CA010A2ACA573A704A809A903AAD0AB44B140B330B4E0B61FB70FB908BA20BB80BF05C003C604C9FFCA07CBFFCC40CD20CEF0CF05D008D401D8043F
:40010000D904DA04DB04DF01E040E1A8E240E320010202220480054206180A410B200D800F20101011A01240172119161D401F1020212110235025482680278128082D2002
:400140002E082F1832403304341035123680372039043B503F2040414110424045084806501051405590564057105D205E0A5F8079307A017B02C0FDC2ADC45FCA64CCBA70
:40018000CE2ED04DD20CD6F006040A040C081A012A022D012E01300132043301340836023E153F044046410246B047EC483849FF4AFF4BFF4EF04F44500C5418580459046E
:4001C0005A045B045F0166C06A406B02800181E78318843F850888028BE38C338DC08E0C9003913C93C2940C951899FF9C1F9D109E20A008A11CA3E1A404A580A944AA2303
:40020000AC1CAE23AF04B00FB11FB210B538B62CB7C0BAA2BB02BE04D602D712D804D904DB04DF0100640102022504A0050409080A010B400D101080111012021304140810
:400240001580184419081A011B801D401F2520082110220223022604280829402A042B802F0230803108322239103A013B44460847014F205610570A59085F02670A6904FA
:400280006A806B047080710873047C047D088002810490A09190934094409504968199049A089B019C089E109F04A010A310A406A626A70AC0EFC24DC4CFCA1FCC0FCE0F05
:4002C000D0A0D220D682D830AB20AC08AD0203805704C010D440AB04AF80EC10EE20000108010000020001020200020000000000007F7F0000000000000000000000000053
:4003000000000000000000000000000000000000000000000000000000000000000000000000000000000000000000000000000000000000000000000000000000000000BD
:40034000000000000000000000000000000000000000000000000000000000000000000000000000000000000000000000000000000000000000000000000000000000007D
:40038000000000000000000000000000000000000000000000000000000000000000000000000000000000000000000000000000000000000000000000000000000000003D
:4003C00000000000000000000000000000000000000000000000000000000000000000000000000000000000000000000000000000000000000000000000000000000000FD
:0200000490006A
:0400000000004005B7
:0200000490105A
:04000000BC90ACAF55
:0200000490303A
:02000000F1A568
:0200000490402A
:4000000000000000000000000000000000000000000000000000000000000000000000000000000000000000000000000000000000000000000000000000000000000000C0
:400040000000000000000000000000000000000000000000000000000000000000000000000000000000000000000000000000000000000000000000000000000000000080
:400080000000000000000000000000000000000000000000000000000000000000000000000000000000000000000000000000000000000000000000000000000000000040
:4000C0000000000000000000000000000000000000000000000000000000000000000000000000000000000000000000000000000000000000000000000000000000000000
:0200000490501A
:0C00000000012E12306900012E16220EA5
:00000001FF